{
  "_format": "hh-sol-artifact-1",
  "contractName": "DataConsumerV3",
  "sourceName": "contracts/converter.sol",
  "abi": [
    {
      "inputs": [],
      "stateMutability": "nonpayable",
      "type": "constructor"
    },
    {
      "inputs": [
        {
          "internalType": "int256",
          "name": "pair",
          "type": "int256"
        }
      ],
      "name": "getChainlinkDataFeedLatestAnswer",
      "outputs": [
        {
          "internalType": "int256",
          "name": "",
          "type": "int256"
        }
      ],
      "stateMutability": "view",
      "type": "function"
    }
  ],
  "bytecode": "0x608060405234801561001057600080fd5b50731b44f3514812d835eb1bdb0acb33d3fa3351ee436000806101000a81548173ffffffffffffffffffffffffffffffffffffffff021916908373ffffffffffffffffffffffffffffffffffffffff16021790555073694aa1769357215de4fac081bf1f309adc325306600160006101000a81548173ffffffffffffffffffffffffffffffffffffffff021916908373ffffffffffffffffffffffffffffffffffffffff16021790555073c59e3633baac79493d908e63626716e204a45edf600260006101000a81548173ffffffffffffffffffffffffffffffffffffffff021916908373ffffffffffffffffffffffffffffffffffffffff160217905550735fb1616f78da7afc9ff79e0371741a747d2a7f22600360006101000a81548173ffffffffffffffffffffffffffffffffffffffff021916908373ffffffffffffffffffffffffffffffffffffffff1602179055506104df806101736000396000f3fe608060405234801561001057600080fd5b506004361061002b5760003560e01c8063d25f08a414610030575b600080fd5b61004a6004803603810190610045919061034a565b610060565b6040516100579190610386565b60405180910390f35b60006001820361010b5760008060009054906101000a900473ffffffffffffffffffffffffffffffffffffffff1673ffffffffffffffffffffffffffffffffffffffff1663feaf968c6040518163ffffffff1660e01b815260040160a060405180830381865afa1580156100d8573d6000803e3d6000fd5b505050506040513d601f19601f820116820180604052508101906100fc919061042e565b5050509150508091505061030a565b600282036101b5576000600160009054906101000a900473ffffffffffffffffffffffffffffffffffffffff1673ffffffffffffffffffffffffffffffffffffffff1663feaf968c6040518163ffffffff1660e01b815260040160a060405180830381865afa158015610182573d6000803e3d6000fd5b505050506040513d601f19601f820116820180604052508101906101a6919061042e565b5050509150508091505061030a565b6003820361025f576000600260009054906101000a900473ffffffffffffffffffffffffffffffffffffffff1673ffffffffffffffffffffffffffffffffffffffff1663feaf968c6040518163ffffffff1660e01b815260040160a060405180830381865afa15801561022c573d6000803e3d6000fd5b505050506040513d601f19601f82011682018060405250810190610250919061042e565b5050509150508091505061030a565b60048203610309576000600360009054906101000a900473ffffffffffffffffffffffffffffffffffffffff1673ffffffffffffffffffffffffffffffffffffffff1663feaf968c6040518163ffffffff1660e01b815260040160a060405180830381865afa1580156102d6573d6000803e3d6000fd5b505050506040513d601f19601f820116820180604052508101906102fa919061042e565b5050509150508091505061030a565b5b919050565b600080fd5b6000819050919050565b61032781610314565b811461033257600080fd5b50565b6000813590506103448161031e565b92915050565b6000602082840312156103605761035f61030f565b5b600061036e84828501610335565b91505092915050565b61038081610314565b82525050565b600060208201905061039b6000830184610377565b92915050565b600069ffffffffffffffffffff82169050919050565b6103c0816103a1565b81146103cb57600080fd5b50565b6000815190506103dd816103b7565b92915050565b6000815190506103f28161031e565b92915050565b6000819050919050565b61040b816103f8565b811461041657600080fd5b50565b60008151905061042881610402565b92915050565b600080600080600060a0868803121561044a5761044961030f565b5b6000610458888289016103ce565b9550506020610469888289016103e3565b945050604061047a88828901610419565b935050606061048b88828901610419565b925050608061049c888289016103ce565b915050929550929590935056fea264697066735822122077b056b9cd8e3968474d3d39a87a8213bb4c547b001f702de1989deb9cf5f47964736f6c63430008130033",
  "linkReferences": {},
  "deployedLinkReferences": {}
}