{
  "_format": "hh-sol-artifact-1",
  "contractName": "DataConsumerV3",
  "sourceName": "contracts/converter.sol",
  "abi": [
    {
      "inputs": [],
      "stateMutability": "nonpayable",
      "type": "constructor"
    },
    {
      "inputs": [
        {
          "internalType": "uint256",
          "name": "pair",
          "type": "uint256"
        }
      ],
      "name": "getChainlinkDataFeedLatestAnswer",
      "outputs": [
        {
          "internalType": "int256",
          "name": "",
          "type": "int256"
        }
      ],
      "stateMutability": "view",
      "type": "function"
    }
  ],
  "bytecode": "0x608060405234801561001057600080fd5b50731b44f3514812d835eb1bdb0acb33d3fa3351ee436000806101000a81548173ffffffffffffffffffffffffffffffffffffffff021916908373ffffffffffffffffffffffffffffffffffffffff16021790555073694aa1769357215de4fac081bf1f309adc325306600160006101000a81548173ffffffffffffffffffffffffffffffffffffffff021916908373ffffffffffffffffffffffffffffffffffffffff16021790555073c59e3633baac79493d908e63626716e204a45edf600260006101000a81548173ffffffffffffffffffffffffffffffffffffffff021916908373ffffffffffffffffffffffffffffffffffffffff160217905550735fb1616f78da7afc9ff79e0371741a747d2a7f22600360006101000a81548173ffffffffffffffffffffffffffffffffffffffff021916908373ffffffffffffffffffffffffffffffffffffffff160217905550610596806101736000396000f3fe608060405234801561001057600080fd5b506004361061002b5760003560e01c8063739ebd0314610030575b600080fd5b61004a60048036038101906100459190610384565b610060565b60405161005791906103ca565b60405180910390f35b60006001820361010b5760008060009054906101000a900473ffffffffffffffffffffffffffffffffffffffff1673ffffffffffffffffffffffffffffffffffffffff1663feaf968c6040518163ffffffff1660e01b815260040160a060405180830381865afa1580156100d8573d6000803e3d6000fd5b505050506040513d601f19601f820116820180604052508101906100fc9190610468565b50505091505080915050610344565b600282036101b5576000600160009054906101000a900473ffffffffffffffffffffffffffffffffffffffff1673ffffffffffffffffffffffffffffffffffffffff1663feaf968c6040518163ffffffff1660e01b815260040160a060405180830381865afa158015610182573d6000803e3d6000fd5b505050506040513d601f19601f820116820180604052508101906101a69190610468565b50505091505080915050610344565b6003820361025f576000600260009054906101000a900473ffffffffffffffffffffffffffffffffffffffff1673ffffffffffffffffffffffffffffffffffffffff1663feaf968c6040518163ffffffff1660e01b815260040160a060405180830381865afa15801561022c573d6000803e3d6000fd5b505050506040513d601f19601f820116820180604052508101906102509190610468565b50505091505080915050610344565b60048203610309576000600360009054906101000a900473ffffffffffffffffffffffffffffffffffffffff1673ffffffffffffffffffffffffffffffffffffffff1663feaf968c6040518163ffffffff1660e01b815260040160a060405180830381865afa1580156102d6573d6000803e3d6000fd5b505050506040513d601f19601f820116820180604052508101906102fa9190610468565b50505091505080915050610344565b6040517f08c379a000000000000000000000000000000000000000000000000000000000815260040161033b90610540565b60405180910390fd5b919050565b600080fd5b6000819050919050565b6103618161034e565b811461036c57600080fd5b50565b60008135905061037e81610358565b92915050565b60006020828403121561039a57610399610349565b5b60006103a88482850161036f565b91505092915050565b6000819050919050565b6103c4816103b1565b82525050565b60006020820190506103df60008301846103bb565b92915050565b600069ffffffffffffffffffff82169050919050565b610404816103e5565b811461040f57600080fd5b50565b600081519050610421816103fb565b92915050565b610430816103b1565b811461043b57600080fd5b50565b60008151905061044d81610427565b92915050565b60008151905061046281610358565b92915050565b600080600080600060a0868803121561048457610483610349565b5b600061049288828901610412565b95505060206104a38882890161043e565b94505060406104b488828901610453565b93505060606104c588828901610453565b92505060806104d688828901610412565b9150509295509295909350565b600082825260208201905092915050565b7f496e76616c69642070616972206e756d62657200000000000000000000000000600082015250565b600061052a6013836104e3565b9150610535826104f4565b602082019050919050565b600060208201905081810360008301526105598161051d565b905091905056fea264697066735822122082ff2e383b014786fc2cfc1f2405c60c8792397c0cbf60cafae95dde78de236964736f6c63430008130033",
  "linkReferences": {},
  "deployedLinkReferences": {}
}